:100000000C9462000C948A000C948A000C948A0070
:100010000C948A000C948A000C948A000C948A0038
:100020000C948A000C948A000C948A000C948A0028
:100030000C948A000C948A000C948A000C948A0018
:100040000C9423020C948A000C94F1010C94CB01C3
:100050000C948A000C948A000C948A000C948A00F8
:100060000C948A000C948A0008000000BE92244977
:10007000123EABAAAA2ABECDCCCC4C3E00000080DA
:10008000BEABAAAAAA3E00000000BF000000803F4D
:100090000000000000084178D3BB4387D1133D190D
:1000A0000E3CC3BD4282AD2B3E68EC8276BED98F3A
:1000B000E1A93E4C80EFFFBE01C4FF7F3F0000007E
:1000C00000006D0211241FBECFEFD8E0DEBFCDBF10
:1000D00011E0A0E0B1E0E0EDFDE002C005900D927E
:1000E000A433B107D9F721E0A4E3B1E001C01D9228
:1000F000AC3DB207E1F710E0C2E6D0E004C02197C2
:10010000FE010E94E006C136D107C9F70E949E0297
:100110000C94E6060C940000AF92BF92CF92DF924F
:10012000EF92FF920F931F93CF93DF936C017B01AC
:100130008B01040F151FEB015E01AE18BF08C0173D
:10014000D10759F06991D601ED91FC910190F081B0
:10015000E02DC6010995892B79F7C501DF91CF9173
:100160001F910F91FF90EF90DF90CF90BF90AF90D5
:100170000895FC01538D448D252F30E0842F90E0AD
:10018000821B930B541710F0CF9608950197089592
:10019000FC01918D828D981761F0A28DAE0FBF2F5B
:1001A000B11D5D968C91928D9F5F9F73928F90E0B1
:1001B00008958FEF9FEF0895FC01918D828D981720
:1001C00031F0828DE80FF11D858D90E008958FEF5D
:1001D0009FEF0895FC01918D228D892F90E0805C26
:1001E0009F4F821B91098F73992708958DE391E0AA
:1001F0000E94EA0021E0892B09F420E0822F089573
:1002000080E090E0892B29F00E94F60081110C9487
:1002100000000895FC01A48DA80FB92FB11DA35AA9
:10022000BF4F2C91848D90E001968F739927848F16
:10023000A689B7892C93A089B1898C918370806439
:100240008C93938D848D981306C00288F389E02DDA
:1002500080818F7D80830895EF92FF920F931F938B
:10026000CF93DF93EC0181E0888F9B8D8C8D981369
:100270001AC0E889F989808185FF15C09FB7F89475
:10028000EE89FF896083E889F989808183708064C1
:1002900080839FBF81E090E0DF91CF911F910F910C
:1002A000FF90EF900895F62E0B8D10E00F5F1F4F1B
:1002B0000F731127E02E8C8D8E110CC00FB607FC2A
:1002C000FACFE889F989808185FFF5CFCE010E94B8
:1002D0000A01F1CFEB8DEC0FFD2FF11DE35AFF4F1B
:1002E000F0829FB7F8940B8FEA89FB898081806246
:1002F000CFCFCF93DF93EC01888D8823B9F0AA8903
:10030000BB89E889F9898C9185FD03C0808186FDD0
:100310000DC00FB607FCF7CF8C9185FFF2CF80811F
:1003200085FFEDCFCE010E940A01E9CFDF91CF9189
:1003300008953FB7F8948091390190913A01A091C6
:100340003B01B0913C0126B5A89B05C02F3F19F099
:100350000196A11DB11D3FBFBA2FA92F982F882745
:10036000BC01CD01620F711D811D911D42E0660F20
:10037000771F881F991F4A95D1F70895FC010190B6
:100380000020E9F73197AF01481B590BBC018DE301
:1003900091E00C948C001F920F920FB60F921124D3
:1003A0002F933F934F935F936F937F938F939F937D
:1003B000AF93BF93EF93FF938DE391E00E940A0107
:1003C000FF91EF91BF91AF919F918F917F916F912D
:1003D0005F914F913F912F910F900FBE0F901F9003
:1003E00018951F920F920FB60F9211242F938F938F
:1003F0009F93EF93FF93E0914D01F0914E01808127
:10040000E0915301F091540182FD1BC090818091D5
:1004100056018F5F8F7320915701821741F0E09151
:100420005601F0E0E35CFE4F958F80935601FF91FB
:10043000EF919F918F912F910F900FBE0F901F9072
:1004400018958081F4CF1F920F920FB60F9211244E
:100450002F933F938F939F93AF93BF9380913501D9
:1004600090913601A0913701B0913801309134015B
:1004700023E0230F2D3758F50196A11DB11D2093C0
:1004800034018093350190933601A0933701B093E6
:1004900038018091390190913A01A0913B01B091CE
:1004A0003C010196A11DB11D8093390190933A0141
:1004B000A0933B01B0933C01BF91AF919F918F916D
:1004C0003F912F910F900FBE0F901F90189526E827
:1004D000230F0296A11DB11DD2CFEDE3F1E01382EF
:1004E000128288EE93E0A0E0B0E084839583A68337
:1004F000B78384E091E09183808385EC90E09587D9
:10050000848784EC90E09787868780EC90E0918BDD
:10051000808B81EC90E0938B828B82EC90E0958BCA
:10052000848B86EC90E0978B868B118E128E138EC7
:10053000148E1092DB011092DA010895CF93DF93AD
:10054000CDB7DEB7A1970FB6F894DEBF0FBECDBF13
:10055000789484B5826084BD84B5816084BD85B59E
:10056000826085BD85B5816085BD80916E008160AA
:1005700080936E0010928100809181008260809350
:100580008100809181008160809381008091800052
:100590008160809380008091B10084608093B1007D
:1005A0008091B00081608093B00080917A00846077
:1005B00080937A0080917A00826080937A008091A3
:1005C0007A00816080937A0080917A0080688093BD
:1005D0007A001092C100E0914D01F0914E0182E04D
:1005E0008083E0914901F0914A011082E0914B0132
:1005F000F0914C018FEC808310925501E0915101F4
:10060000F091520186E08083E0914F01F09150011A
:10061000808180618083E0914F01F0915001808161
:1006200088608083E0914F01F09150018081806863
:100630008083E0914F01F091500180818F7D808314
:100640009AE0892E912CA12CB12C20E0222E20E0C2
:10065000322E8091DA018E3008F08E5087708064DF
:1006600080937C0080917A00806480937A008091EE
:100670007A0086FDFCCF8091780020917900322F9E
:10068000282F032E000C440B550B60E070E48CE91E
:1006900090E00E94C106CA01B90160517742810908
:1006A00091090E9421050E94B5056B017C0129E595
:1006B00037E44CEB53E30E94FD05A70196010E942D
:1006C000FD05A70196010E94FD052B013C0123E7D2
:1006D0003FE745E759E3C701B6010E94FD052BEE50
:1006E0003FEF43E95AE30E940B049B01AC01C301B5
:1006F000B2010E940B049B01AC0160E070E080E855
:100700009FE30E94770423E333E948E853E40E941F
:100710000A040E94E9046B0182E191E00E94BE019B
:100720000D2C000CEE08FF08F7FE5EC06DE28DE3B5
:1007300091E00E942C0122273327A9012C193D09A1
:100740004E095F0919A28E010F5D1F4FCA01B90141
:10075000A50194010E949F06605DF80162938F01DC
:10076000211531054105510589F70115110519F0CC
:10077000C8010E94BE018DE291E00E94BE0180E3AB
:1007800091E00E94BE010E9499012B013C0188EE7C
:10079000C82E83E0D82EE12CF12C0E949901641917
:1007A000750986099709683E734081059105A8F38C
:1007B000F1E0CF1AD108E108F10828EE420E23E05B
:1007C000521E611C711CC114D104E104F10429F70B
:1007D0002114310409F43DCF0E94F600882309F466
:1007E00038CF0E94000035CFA701960119A28E01D3
:1007F0000F5D1F4FCA01B901A50194010E949F0618
:10080000605DF80162938F012115310541055105A5
:1008100089F7ABCF5058BB27AA270E9422040C941B
:1008200073050E94650538F00E946C0520F039F4CC
:100830009F3F19F426F40C9462050EF4E095E7FB53
:100840000C945C05E92F0E94840558F3BA176207DF
:1008500073078407950720F079F4A6F50C94A60594
:100860000EF4E0950B2EBA2FA02D0B01B9019001CB
:100870000C01CA01A0011124FF27591B99F0593F0F
:1008800050F4503E68F11A16F040A22F232F342F57
:100890004427585FF3CF469537952795A795F040A5
:1008A0005395C9F77EF41F16BA0B620B730B840BBA
:1008B000BAF09150A1F0FF0FBB1F661F771F881F72
:1008C000C2F70EC0BA0F621F731F841F48F48795CA
:1008D00077956795B795F7959E3F08F0B0CF9395BC
:1008E000880F08F09927EE0F9795879508950E9435
:1008F0008B040C9473050E946C0558F00E946505EA
:1009000040F029F45F3F29F00C945C0551110C94E0
:10091000A7050C9462050E94840568F39923B1F33E
:10092000552391F3951B550BBB27AA276217730715
:10093000840738F09F5F5F4F220F331F441FAA1FA9
:10094000A9F335D00E2E3AF0E0E832D09150504065
:10095000E695001CCAF72BD0FE2F29D0660F771F13
:10096000881FBB1F261737074807AB07B0E809F0F9
:10097000BB0B802DBF01FF2793585F4F3AF09E3F7E
:10098000510578F00C945C050C94A7055F3FE4F3E7
:10099000983ED4F3869577956795B795F7959F5FC1
:1009A000C9F7880F911D9695879597F90895E1E00D
:1009B000660F771F881FBB1F621773078407BA076C
:1009C00020F0621B730B840BBA0BEE1F88F7E095C7
:1009D00008950E94F0046894B1110C94A70508953D
:1009E0000E948C0588F09F5798F0B92F9927B7512E
:1009F000B0F0E1F0660F771F881F991F1AF0BA95C3
:100A0000C9F714C0B13091F00E94A605B1E0089575
:100A10000C94A605672F782F8827B85F39F0B93F67
:100A2000CCF3869577956795B395D9F73EF4909575
:100A30008095709561957F4F8F4F9F4F0895E894F3
:100A400009C097FB3EF490958095709561957F4F16
:100A50008F4F9F4F9923A9F0F92F96E9BB279395C4
:100A6000F695879577956795B795F111F8CFFAF4D4
:100A7000BB0F11F460FF1BC06F5F7F4F8F4F9F4F05
:100A800016C0882311F096E911C0772321F09EE863
:100A9000872F762F05C0662371F096E8862F70E0C9
:100AA00060E02AF09A95660F771F881FDAF7880FA3
:100AB0009695879597F9089597F99F6780E870E074
:100AC00060E008959FEF80EC089500240A941616C4
:100AD000170618060906089500240A94121613062C
:100AE000140605060895092E0394000C11F48823BA
:100AF00052F0BB0F40F4BF2B11F460FF04C06F5FD6
:100B00007F4F8F4F9F4F089557FD9058440F551FAB
:100B100059F05F3F71F04795880F97FB991F61F07F
:100B20009F3F79F087950895121613061406551FF6
:100B3000F2CF4695F1DF08C0161617061806991F62
:100B4000F1CF86957105610508940895E894BB2757
:100B500066277727CB0197F9089516F00C946A065B
:100B60000C94620568940C945C050E948C05A8F3B3
:100B70009923C1F3AEF3DF93CF931F930F93FF92AB
:100B8000C92FDD2788232AF02197660F771F881F3A
:100B9000DAF720E030E040E85FEB9FE3883920F0AF
:100BA000803E38F021968F770E940B04E8E6F0E053
:100BB00004C00E940B04E5E9F0E00E9478068B0176
:100BC000BE01EC01FB2E6F5771097595771F880BDD
:100BD000990B0E94210528E132E741E35FE30E947F
:100BE0001006AF2D9801AE01FF900F911F91CF918C
:100BF000DF910E9422040C9473050E9410060C944D
:100C000073050E94650538F00E946C0520F095235D
:100C100011F00C945C050C94620511240C94A7054A
:100C20000E94840570F3959FC1F3950F50E0551F06
:100C3000629FF001729FBB27F00DB11D639FAA2731
:100C4000F00DB11DAA1F649F6627B00DA11D661F80
:100C5000829F2227B00DA11D621F739FB00DA11DA1
:100C6000621F839FA00D611D221F749F3327A00D5B
:100C7000611D231F849F600D211D822F762F6A2FF7
:100C800011249F5750409AF0F1F088234AF0EE0F5C
:100C9000FF1FBB1F661F771F881F91505040A9F789
:100CA0009E3F510580F00C945C050C94A7055F3FB6
:100CB000E4F3983ED4F3869577956795B795F795C5
:100CC000E7959F5FC1F7FE2B880F911D969587953D
:100CD00097F908959F3F31F0915020F487957795CB
:100CE0006795B795880F911D9695879597F9089503
:100CF000DF93CF931F930F93FF92EF92DF927B01CD
:100D00008C01689406C0DA2EEF010E941006FE01E5
:100D1000E894A5912591359145915591A6F3EF0160
:100D20000E942204FE019701A801DA9469F7DF907E
:100D3000EF90FF900F911F91CF91DF910895A1E265
:100D40001A2EAA1BBB1BFD010DC0AA1FBB1FEE1F45
:100D5000FF1FA217B307E407F50720F0A21BB30B90
:100D6000E40BF50B661F771F881F991F1A9469F70C
:100D700060957095809590959B01AC01BD01CF0168
:100D80000895052E97FB1EF400940E94D80657FD87
:100D900007D00E949F0607FC03D04EF40C94D8069F
:100DA00050954095309521953F4F4F4F5F4F089597
:100DB00090958095709561957F4F8F4F9F4F0895C7
:100DC000EE0FFF1F0590F491E02D0994F894FFCFEA
:100DD000000000002C018C00B9007901EA00C80075
:100DE000DC0054656D7065726174757261206E6FA0
:100DF0002053656E736F722065683A20002A4300A5
:040E00000D0A0000D7
:00000001FF
